:1000000053C000006EC000006CC000006AC0000059
:1000100068C0000066C0000064C0000062C000004C
:1000200060C000005EC000005CC000005AC000005C
:1000300058C0000056C0000054C0000052C000006C
:1000400050C000004EC000004CC000004AC000007C
:1000500048C0000046C0000044C0000042C000008C
:1000600040C000003EC000003CC000003AC000009C
:1000700047C1000036C0000034C0000032C000009C
:1000800030C000002EC000002CC000009000BA005C
:10009000C000C600CC00D200D800FB00FB00FB0073
:1000A000DE00E700ED00F60011241FBECFEFD0E424
:1000B000DEBFCDBF11E0A0E0B1E0E4E4F3E000E09A
:1000C0000BBF02C007900D92A030B107D9F721E015
:1000D000A0E0B1E001C01D92A230B207E1F7B3D0B9
:1000E0002FC18ECF1092CD0089E18093CC00E9EC36
:1000F000F0E080818869808386E08093CA0008955B
:100100009091C80095FFFCCF8093CE00089590E0B9
:100110008E30910508F06FC0FC01EA5BFF4F07C10C
:10012000569B02C081E0ECDF2FEF89EF90E0215079
:1001300080409040E1F700C00000559B02C083E082
:10014000DFDF2FEF89EF90E0215080409040E1F712
:1001500000C00000549B02C085E0D2DF2FEF89EF82
:1001600090E0215080409040E1F700C0000080E026
:10017000C7CF08958AB180648AB981E0C1CF08955C
:100180008AB18F7B8AB982E0BBCF08958AB1806241
:100190008AB983E0B5CF08958AB18F7D8AB984E0AA
:1001A000AFCF08958AB180618AB985E0A9CF08955B
:1001B0008AB18F7E8AB986E0A3CF089588B1806422
:1001C00088B985B1886085B98AE09ACF089585B1EC
:1001D000877F85B98BE094CF089588B1806488B912
:1001E00085B1806185B98CE08BCF089585B18F7E14
:1001F00085B98DE085CF0895882321F088B180628C
:1002000088B9089588B18F7D88B90895882321F031
:1002100088B18F7E88B9089588B1806188B90895C2
:1002200081E0F4DF8FE19EE40197F1F700C0000068
:1002300081E0E2DF8FE39CE90197F1F700C0000065
:1002400080E0E4CF08952FEF81EE94E021508040CC
:100250009040E1F700C0000011B814B884B1886183
:1002600084B917B887B1806187B987B1806287B9CF
:1002700087B1806487B987B1806887B918B81AB820
:100280008BB18F788BB978942DDF81E040DF2FEF31
:1002900083ED90E3215080409040E1F700C00000E2
:1002A00082E035DF83E033DF2FEF83ED90E32150F1
:1002B00080409040E1F700C0000084E028DF85E046
:1002C00026DF2FEF83ED90E3215080409040E1F74F
:1002D00000C0000086E01BDF2FEF83ED90E321508C
:1002E00080409040E1F700C000009ADF809100015B
:1002F0008823E1F3809101010ADF10920001F6CF1B
:100300001F920F920FB60F9211248F938091C80005
:100310008823E4F78091CE008093010181E08093EF
:1003200000018F910F900FBE0F901F901895EE0F48
:10033000FF1F0024001C0BBE0790F691E02D0994CE
:04034000F894FFCF5F
:00000001FF
