:1000000052C000006DC000006BC0000069C000005D
:1000100067C0000065C0000063C0000061C0000050
:100020005FC000005DC000005BC0000059C0000060
:1000300057C0000055C0000053C0000051C0000070
:100040004FC000004DC000004BC0000049C0000080
:1000500047C0000045C0000043C0000041C0000090
:100060003FC000003DC000003BC0000039C00000A0
:100070005CC1000035C0000033C0000031C000008A
:100080002FC000002DC000002BC000009000BA005F
:10009000C000C600CC00D200D800FB00FB00DE0090
:1000A000E700ED00F60011241FBECFEFD0E4DEBF65
:1000B000CDBF11E0A0E0B1E0EEE6F3E000E00BBF61
:1000C00002C007900D92A030B107D9F721E0A0E05F
:1000D000B1E001C01D92A230B207E1F7B4D045C132
:1000E0008FCF1092CD0089E18093CC00E9ECF0E055
:1000F00080818869808386E08093CA00089590910A
:10010000C80095FFFCCF8093CE00089590E0FC01DD
:100110003197ED30F10508F06EC0EA5BFF4F1CC16E
:10012000569B02C082E0EBDF2FEF89EF90E0215079
:1001300080409040E1F700C00000559B02C084E081
:10014000DEDF2FEF89EF90E0215080409040E1F713
:1001500000C00000549B02C086E0D1DF2FEF89EF82
:1001600090E0215080409040E1F700C0000081E025
:10017000C6CF08958AB180648AB982E0C0CF08955D
:100180008AB18F7B8AB983E0BACF08958AB1806241
:100190008AB984E0B4CF08958AB18F7D8AB985E0A9
:1001A000AECF08958AB180618AB986E0A8CF08955C
:1001B0008AB18F7E8AB987E0A2CF089588B1806422
:1001C00088B985B1886085B98AE099CF089585B1ED
:1001D000877F85B98BE093CF089588B1806488B913
:1001E00085B1806185B98CE08ACF089585B18F7E15
:1001F00085B98DE084CF0895882321F088B180628D
:1002000088B9089588B18F7D88B90895882321F031
:1002100088B18F7E88B9089588B1806188B90895C2
:1002200081E0F4DF8FE19EE40197F1F700C0000068
:1002300081E0E2DF8FE39CE90197F1F700C0000065
:1002400080E0E4CF08952FEF81EE94E021508040CC
:100250009040E1F700C0000011B814B884B1886183
:1002600084B917B887B1806187B987B1806287B9CF
:1002700087B1806487B987B1806887B918B81AB820
:100280008BB18F7C8BB978942CDF82E03FDF2FEF2E
:1002900083ED90E3215080409040E1F700C00000E2
:1002A00083E034DF84E032DF2FEF83ED90E32150F1
:1002B00080409040E1F700C0000085E027DF86E045
:1002C00025DF2FEF83ED90E3215080409040E1F750
:1002D00000C0000087E01ADF2FEF83ED90E321508C
:1002E00080409040E1F700C000009ADF809101015A
:1002F0008130E1F78AB180628AB92FEF83EC99E00F
:10030000215080409040E1F700C000008AB18F7D0D
:100310008AB9809100018823E1F380910101F6DE22
:100320001092000110920101F4CF1F920F920FB6AC
:100330000F9211248F938091C8008823E4F781E005
:10034000809300018091CE00809301018F910F90E6
:100350000FBE0F901F901895EE0FFF1F0024001C7A
:0E0360000BBE0790F691E02D0994F894FFCFA4
:00000001FF
