:1000000045C0000060C000005EC000005CC0000091
:100010005AC0000058C0000056C0000054C0000084
:1000200052C0000050C000004EC000004CC0000094
:100030004AC0000048C0000046C0000044C00000A4
:1000400042C0000040C000003EC000003CC00000B4
:100050003AC0000038C0000036C0000034C00000C4
:1000600032C0000030C000002EC000002CC00000D4
:100070000BC1000028C0000026C0000024C0000002
:1000800022C0000020C000001EC0000011241FBEBE
:10009000CFEFD0E4DEBFCDBF11E0A0E0B1E0EAEBEE
:1000A000F2E000E00BBF02C007900D92A030B10754
:1000B000D9F721E0A0E0B1E001C01D92A230B20763
:1000C000E1F770D0F8C09CCF1092CD0089E1809309
:1000D000CC00E9ECF0E080818869808386E0809341
:1000E000CA0008959091C80095FFFCCF8093CE0080
:1000F00008958430C1F028F4823049F0833069F0EB
:1001000008958630E1F0A8F08730F9F008958AB1BB
:1001100080648AB982E0E6CF08958AB18F7B8AB97C
:1001200083E0E0CF08958AB180628AB984E0DACFB3
:1001300008958AB18F7D8AB985E0D4CF08958AB1B8
:1001400080618AB986E0CECF08958AB18F7E8AB960
:1001500087E0C8CF0895882321F088B1806288B9EC
:10016000089588B18F7D88B90895882321F088B1DA
:100170008F7E88B9089588B1806188B9089581E03B
:10018000F4DF8FE19EE40197F1F700C0000081E009
:10019000E2DF8FE39CE90197F1F700C0000080E007
:1001A000E4CF08952FEF81EE94E0215080409040FD
:1001B000E1F700C0000011B814B884B1886184B9B7
:1001C00017B887B1806187B987B1806287B987B175
:1001D000806487B987B1806887B918B81AB88BB1BD
:1001E0008F7C8BB9789470DF82E083DF2FEF83ED13
:1001F00090E3215080409040E1F700C0000083E090
:1002000078DF84E076DF2FEF83ED90E321508040AC
:100210009040E1F700C0000085E06BDF86E069DF19
:100220002FEF83ED90E3215080409040E1F700C034
:10023000000087E05EDF2FEF83ED90E321508040E8
:100240009040E1F700C000009ADF80910101813009
:10025000E1F78AB180628AB92FEF83EC99E02150EF
:1002600080409040E1F700C000008AB18F7D8AB9DC
:10027000809100018823E1F3809101013ADF10921F
:10028000000110920101F4CF1F920F920FB60F924E
:1002900011248F938091C8008823E4F781E0809334
:1002A00000018091CE00809301018F910F900FBECD
:0A02B0000F901F901895F894FFCFEF
:00000001FF
