S01600004D4F53626F745F5247425F424C452E737265636E
S113000045C0000058C0000056C0000054C00000A5
S113001052C0000050C000004EC000004CC00000A0
S11300204AC0000048C0000046C0000044C00000B0
S113003042C0000040C000003EC000003CC00000C0
S11300403AC0000038C0000036C0000034C00000D0
S113005032C0000030C000002EC000002CC00000E0
S11300602AC0000028C0000026C0000024C00000F0
S11300702DC1000020C000001EC000001CC00000F4
S11300801AC0000018C0000016C0000011241FBED2
S1130090CFEFD0E4DEBFCDBF11E0A0E0B1E0E8EFE8
S11300A0F2E000E00BBF02C007900D92A230B1074E
S11300B0D9F77BD01FC1A4CF1092CD0089E18093E2
S11300C0CC00E9ECF0E080818869808386E080934D
S11300D0CA0008959091C80095FFFCCF8093CE008C
S11300E008959091C80095FFFCCF8093CE008DE0D9
S11300F0F1DF8AE0EFCF08950F931F93CF93DF933F
S11301008B01EA01892B31F08AB180648AB981E0DC
S1130110E8DF05C08AB18F7B8AB982E0E2DF012B78
S113012031F08AB180628AB983E0DBDF05C08AB12D
S11301308F7D8AB984E0D5DFCD2B31F08AB180611F
S11301408AB985E0CEDF05C08AB18F7E8AB986E0A0
S1130150C8DFDF91CF911F910F910895882321F07B
S113016088B1806288B9089588B18F7D88B908956F
S1130170882321F088B18F7E88B9089588B1806181
S113018088B9089581E0F4DF8FE19EE40197F1F7E7
S113019000C0000081E0E2DF8FE39CE90197F1F702
S11301A000C0000080E0E4CF08952FEF81EE94E0DA
S11301B0215080409040E1F700C0000011B814B80D
S11301C084B1886184B917B887B1806187B987B170
S11301D0806287B987B1806487B987B1806887B93D
S11301E018B81AB88BB18F7C8BB9789465DF40E06E
S11301F050E060E070E081E090E07EDF2FEF83ED7F
S113020090E3215080409040E1F700C0000040E0BE
S113021050E061E070E080E090E06EDF2FEF83ED6E
S113022090E3215080409040E1F700C0000041E09D
S113023050E060E070E080E090E05EDF2FEF83ED5F
S113024090E3215080409040E1F700C0000040E07E
S113025050E060E070E080E090E04EDF2FEF83ED4F
S113026090E3215080409040E1F700C000008ADF15
S113027040E050E061E070E080E090E03DDF2FEF8F
S113028083ED90E3215080409040E1F700C00000EE
S113029040E050E060E070E080E090E02DDF80918D
S11302A00001813039F440E050E060E070E081E02A
S11302B090E022DF80910001823089F740E050E035
S11302C060E070E080E090E017DFE9CF1F920F92CA
S11302D00FB60F9211248F938091C8008823E4F7FE
S11302E08091CE00809300018F910F900FBE0F90EC
S10B02F01F901895F894FFCF4C
S10502F80100FF
S9030000FC
