S01600004D4F53626F745F5247425F424C452E737265636E
S113000045C0000058C0000056C0000054C00000A5
S113001052C0000050C000004EC000004CC00000A0
S11300204AC0000048C0000046C0000044C00000B0
S113003042C0000040C000003EC000003CC00000C0
S11300403AC0000038C0000036C0000034C00000D0
S113005032C0000030C000002EC000002CC00000E0
S11300602AC0000028C0000026C0000024C00000F0
S113007022C0000020C000001EC000001CC0000000
S11300801AC0000018C0000016C0000011241FBED2
S1130090CFEFD0E4DEBFCDBF11E0A0E0B1E0E0ECF3
S11300A0F2E000E00BBF02C007900D92A030B10750
S11300B0D9F781D003C1A4CF1092CD0089E18093F8
S11300C0CC00E9ECF0E080818869808386E080934D
S11300D0CA0008959091C80095FFFCCF8093CE008C
S11300E008959091C80095FFFCCF8093CE008DE0D9
S11300F0F1DF8AE0EFCF08950F931F93CF93DF933F
S11301008B01EA01892B39F08AB180648AB981E0D4
S113011090E0E7DF06C08AB18F7B8AB982E090E085
S1130120E0DF012B39F08AB180628AB983E090E084
S1130130D8DF06C08AB18F7D8AB984E090E0D1DF30
S1130140CD2B39F08AB180618AB985E090E0C9DFAE
S113015006C08AB18F7E8AB986E090E0C2DFDF9163
S1130160CF911F910F910895882321F088B1806267
S113017088B9089588B18F7D88B90895882321F0BE
S113018088B18F7E88B9089588B1806188B908954F
S113019081E0F4DF8FE19EE40197F1F700C00000F5
S11301A081E0E2DF8FE39CE90197F1F700C00000F2
S11301B080E0E4CF08952FEF81EE94E02150804059
S11301C09040E1F700C0000011B814B884B1886110
S11301D084B917B887B1806187B987B1806287B95C
S11301E087B1806487B987B1806887B918B81AB8AD
S11301F08BB18F7C8BB960DF40E050E060E070E051
S113020081E090E079DF2FEF83ED90E3215080408F
S11302109040E1F700C0000040E050E061E070E091
S113022080E090E069DF2FEF83ED90E32150804080
S11302309040E1F700C0000041E050E060E070E071
S113024080E090E059DF2FEF83ED90E32150804070
S11302509040E1F700C0000040E050E060E070E052
S113026080E090E049DF2FEF83ED90E32150804060
S11302709040E1F700C000008BDF40E050E060E018
S113028070E081E090E038DF2FEF83ED90E32150C0
S113029080409040E1F700C0000040E050E060E0A2
S11302A070E080E090E028DF2FEF83E294EF2150AC
S11302B080409040E1F700C00000DFCFF894FFCF0A
S9030000FC
